:02000000DE28F8
:10000800FF00030E8301B2000A08B3008A01AD0A9B
:10001800DC308E000B308F000C1033088A00320E53
:080028008300FF0E7F0E0900AA
:10003000043083120313FC003A30FD00FD0B1E2830
:08004000FC0B1E280000080063
:0E0048008312031331088A003008820008007A
:10005600293083120313B5002330B6000A08F100D5
:1000660002300207F200F30160288316850183122D
:100076008501831686010617861783128601831665
:1000860087018312870183168801831288010F3046
:1000960083169F008B170B170C14DC3083128E000F
:1000A6000B308F0031309000AD01AC01AE01AF01D5
:1000B6005F283608F0006A2868287308003A031992
:1000C60038287308013A03195C283508F00008003F
:1000D60024208A110A128000840AB00A0319B10A80
:0800E600F003031D6B28080064
:1000EE0083120313BA013608F1000130F0007108D3
:1000FE0003198528F00D7010FF3E7F287008B90097
:10010E003508840070080005F10071080130031DE8
:10011E000030F0003808F0060319AD283708003C0F
:10012E0003189D2818201820B70395283508840039
:10013E0039080005F10071080130031D0030F00090
:10014E003808F0060319AD28FF30BA003A08F0005F
:02015E00080097
:10016000831203133708F000B70370080319DB2864
:10017000350884000008003A0319C92836088400AD
:100180000008F1003508840000087106031DC92825
:10019000D828350884000008F100360884000008DB
:1001A000F00070087102F000F101031CF103DD287A
:0C01B000B50AB60AB028F001F101080001
:1001BC004F3083120313A0004B30A100A201453035
:1001CC00A3005230A4005230A5004F30A60052308C
:1001DC00A700A8014F30A9004B30AA00AB0120307A
:1001EC00B4002B203408B5007008B6000230B700FC
:1001FC00B0207008003A031DF7282D080A3A031D99
:10020C000929AC0AAD012C083C3A031D0F29AE0A92
:10021C00AC012E083C3A031D1529AF0AAE012F087C
:10022C00183A031D1A29AF012C0888002E088700E4
:10023C002F0886000630B5000630B600FA30B7003D
:10024C000130B8007720700803192E29AE0A3B291B
:10025C000630B5000730B600FA30B7000130B800F0
:0E026C007720700803193B29AF0A03293C29AB
:02400E004A2F37
:00000001FF
